{
  "address": "0x42B62969eba2AdCF96Ae08C60e6389B264eA0B06",
  "abi": [
    {
      "anonymous": false,
      "inputs": [
        {
          "indexed": true,
          "internalType": "address",
          "name": "token",
          "type": "address"
        },
        {
          "indexed": true,
          "internalType": "address",
          "name": "user",
          "type": "address"
        },
        {
          "indexed": false,
          "internalType": "uint256",
          "name": "amount",
          "type": "uint256"
        }
      ],
      "name": "Deposited",
      "type": "event"
    },
    {
      "anonymous": false,
      "inputs": [
        {
          "indexed": true,
          "internalType": "address",
          "name": "token",
          "type": "address"
        },
        {
          "indexed": true,
          "internalType": "address",
          "name": "from",
          "type": "address"
        },
        {
          "indexed": true,
          "internalType": "address",
          "name": "to",
          "type": "address"
        },
        {
          "indexed": false,
          "internalType": "uint256",
          "name": "amount",
          "type": "uint256"
        }
      ],
      "name": "OpenTokenTransfer",
      "type": "event"
    },
    {
      "anonymous": false,
      "inputs": [
        {
          "indexed": true,
          "internalType": "address",
          "name": "previousOwner",
          "type": "address"
        },
        {
          "indexed": true,
          "internalType": "address",
          "name": "newOwner",
          "type": "address"
        }
      ],
      "name": "OwnershipTransferred",
      "type": "event"
    },
    {
      "anonymous": false,
      "inputs": [
        {
          "indexed": true,
          "internalType": "address",
          "name": "token",
          "type": "address"
        },
        {
          "indexed": true,
          "internalType": "address",
          "name": "user",
          "type": "address"
        },
        {
          "indexed": false,
          "internalType": "uint256",
          "name": "amount",
          "type": "uint256"
        }
      ],
      "name": "RewardClaimed",
      "type": "event"
    },
    {
      "anonymous": false,
      "inputs": [
        {
          "indexed": true,
          "internalType": "address",
          "name": "token",
          "type": "address"
        },
        {
          "indexed": true,
          "internalType": "address",
          "name": "user",
          "type": "address"
        },
        {
          "indexed": false,
          "internalType": "uint256",
          "name": "amount",
          "type": "uint256"
        }
      ],
      "name": "Staked",
      "type": "event"
    },
    {
      "anonymous": false,
      "inputs": [
        {
          "indexed": true,
          "internalType": "address",
          "name": "token",
          "type": "address"
        },
        {
          "indexed": true,
          "internalType": "address",
          "name": "stakingReward",
          "type": "address"
        }
      ],
      "name": "StakingRewardSet",
      "type": "event"
    },
    {
      "anonymous": false,
      "inputs": [
        {
          "indexed": true,
          "internalType": "address",
          "name": "token",
          "type": "address"
        },
        {
          "indexed": true,
          "internalType": "address",
          "name": "user",
          "type": "address"
        },
        {
          "indexed": false,
          "internalType": "uint256",
          "name": "amount",
          "type": "uint256"
        }
      ],
      "name": "Unstaked",
      "type": "event"
    },
    {
      "anonymous": false,
      "inputs": [
        {
          "indexed": true,
          "internalType": "address",
          "name": "token",
          "type": "address"
        },
        {
          "indexed": true,
          "internalType": "address",
          "name": "user",
          "type": "address"
        },
        {
          "indexed": false,
          "internalType": "uint256",
          "name": "amount",
          "type": "uint256"
        }
      ],
      "name": "Withdrawn",
      "type": "event"
    },
    {
      "inputs": [
        {
          "internalType": "address",
          "name": "stakingToken",
          "type": "address"
        },
        {
          "internalType": "address",
          "name": "rewardToken",
          "type": "address"
        }
      ],
      "name": "claimReward",
      "outputs": [],
      "stateMutability": "nonpayable",
      "type": "function"
    },
    {
      "inputs": [],
      "name": "creditToken",
      "outputs": [
        {
          "internalType": "address",
          "name": "",
          "type": "address"
        }
      ],
      "stateMutability": "view",
      "type": "function"
    },
    {
      "inputs": [],
      "name": "cryptoClysm",
      "outputs": [
        {
          "internalType": "address",
          "name": "",
          "type": "address"
        }
      ],
      "stateMutability": "view",
      "type": "function"
    },
    {
      "inputs": [
        {
          "internalType": "address",
          "name": "token",
          "type": "address"
        },
        {
          "internalType": "uint256",
          "name": "stakeAmount",
          "type": "uint256"
        },
        {
          "internalType": "uint256",
          "name": "openAmount",
          "type": "uint256"
        }
      ],
      "name": "depositToken",
      "outputs": [],
      "stateMutability": "nonpayable",
      "type": "function"
    },
    {
      "inputs": [
        {
          "internalType": "address",
          "name": "creditToken_",
          "type": "address"
        }
      ],
      "name": "initialize",
      "outputs": [],
      "stateMutability": "nonpayable",
      "type": "function"
    },
    {
      "inputs": [
        {
          "internalType": "address",
          "name": "",
          "type": "address"
        },
        {
          "internalType": "address",
          "name": "",
          "type": "address"
        }
      ],
      "name": "openTokenBalance",
      "outputs": [
        {
          "internalType": "uint256",
          "name": "",
          "type": "uint256"
        }
      ],
      "stateMutability": "view",
      "type": "function"
    },
    {
      "inputs": [
        {
          "internalType": "address",
          "name": "",
          "type": "address"
        }
      ],
      "name": "openTokenManagers",
      "outputs": [
        {
          "internalType": "bool",
          "name": "",
          "type": "bool"
        }
      ],
      "stateMutability": "view",
      "type": "function"
    },
    {
      "inputs": [],
      "name": "owner",
      "outputs": [
        {
          "internalType": "address",
          "name": "",
          "type": "address"
        }
      ],
      "stateMutability": "view",
      "type": "function"
    },
    {
      "inputs": [],
      "name": "renounceOwnership",
      "outputs": [],
      "stateMutability": "nonpayable",
      "type": "function"
    },
    {
      "inputs": [
        {
          "internalType": "address",
          "name": "cryptoClysm_",
          "type": "address"
        }
      ],
      "name": "setCryptoClysm",
      "outputs": [],
      "stateMutability": "nonpayable",
      "type": "function"
    },
    {
      "inputs": [
        {
          "internalType": "address",
          "name": "tokenManager",
          "type": "address"
        },
        {
          "internalType": "bool",
          "name": "enable",
          "type": "bool"
        }
      ],
      "name": "setOpenTokenManager",
      "outputs": [],
      "stateMutability": "nonpayable",
      "type": "function"
    },
    {
      "inputs": [
        {
          "internalType": "address",
          "name": "stakingToken",
          "type": "address"
        },
        {
          "internalType": "address",
          "name": "stakingReward",
          "type": "address"
        }
      ],
      "name": "setStakingReward",
      "outputs": [],
      "stateMutability": "nonpayable",
      "type": "function"
    },
    {
      "inputs": [
        {
          "internalType": "address",
          "name": "",
          "type": "address"
        }
      ],
      "name": "stakingRewards",
      "outputs": [
        {
          "internalType": "address",
          "name": "",
          "type": "address"
        }
      ],
      "stateMutability": "view",
      "type": "function"
    },
    {
      "inputs": [
        {
          "internalType": "address",
          "name": "token",
          "type": "address"
        },
        {
          "internalType": "address",
          "name": "from",
          "type": "address"
        },
        {
          "internalType": "address",
          "name": "to",
          "type": "address"
        },
        {
          "internalType": "uint256",
          "name": "amount",
          "type": "uint256"
        }
      ],
      "name": "transferOpenToken",
      "outputs": [],
      "stateMutability": "nonpayable",
      "type": "function"
    },
    {
      "inputs": [
        {
          "internalType": "address",
          "name": "newOwner",
          "type": "address"
        }
      ],
      "name": "transferOwnership",
      "outputs": [],
      "stateMutability": "nonpayable",
      "type": "function"
    },
    {
      "inputs": [
        {
          "internalType": "address",
          "name": "",
          "type": "address"
        }
      ],
      "name": "treasuryFunds",
      "outputs": [
        {
          "internalType": "uint256",
          "name": "",
          "type": "uint256"
        }
      ],
      "stateMutability": "view",
      "type": "function"
    },
    {
      "inputs": [
        {
          "internalType": "address",
          "name": "token",
          "type": "address"
        },
        {
          "internalType": "uint256",
          "name": "unstakeAmount",
          "type": "uint256"
        },
        {
          "internalType": "uint256",
          "name": "openAmount",
          "type": "uint256"
        }
      ],
      "name": "withdrawToken",
      "outputs": [],
      "stateMutability": "nonpayable",
      "type": "function"
    },
    {
      "inputs": [
        {
          "internalType": "address",
          "name": "token",
          "type": "address"
        },
        {
          "internalType": "address",
          "name": "to",
          "type": "address"
        },
        {
          "internalType": "uint256",
          "name": "amount",
          "type": "uint256"
        }
      ],
      "name": "withdrawTreasuryFunds",
      "outputs": [],
      "stateMutability": "nonpayable",
      "type": "function"
    }
  ],
  "transactionHash": "0x8e321072be76ab4d900a0d549fbb17df8b6358f1516bc4ad66226dbf59524197",
  "args": [],
  "solcInputHash": "b306d25c82356b8119f31ac83c89ac23",
  "bytecode": "0x608060405234801561001057600080fd5b506116e9806100206000396000f3fe608060405234801561001057600080fd5b50600436106101165760003560e01c806396c0ec55116100a2578063c4d66de811610071578063c4d66de81461028d578063d1368245146102a0578063df47bd9e146102b3578063eedbd6af146102c6578063f2fde38b146102d957600080fd5b806396c0ec551461023457806399c6d2de14610247578063a1aa47141461025a578063b38307a81461026d57600080fd5b80635d9c799e116100e95780635d9c799e146101bc578063616eeba1146101cf578063715018a614610208578063899e5d85146102105780638da5cb5b1461022357600080fd5b8063155791f61461011b5780634953c78214610153578063499d7f961461016857806358570827146101a9575b600080fd5b61013e6101293660046113c5565b60676020526000908152604090205460ff1681565b60405190151581526020015b60405180910390f35b6101666101613660046113e0565b6102ec565b005b6101916101763660046113c5565b6066602052600090815260409020546001600160a01b031681565b6040516001600160a01b03909116815260200161014a565b6101666101b7366004611413565b6104de565b6101666101ca3660046113c5565b61052a565b6101fa6101dd3660046113e0565b606860209081526000928352604080842090915290825290205481565b60405190815260200161014a565b610166610576565b606a54610191906001600160a01b031681565b6033546001600160a01b0316610191565b61016661024236600461144f565b6105ac565b61016661025536600461144f565b61070f565b610166610268366004611490565b6107b0565b6101fa61027b3660046113c5565b60656020526000908152604090205481565b61016661029b3660046113c5565b610853565b606954610191906001600160a01b031681565b6101666102c13660046114c7565b6108e3565b6101666102d43660046113e0565b610aab565b6101666102e73660046113c5565b610b2c565b6040516370a0823160e01b81523060048201526000906001600160a01b038316906370a082319060240160206040518083038186803b15801561032e57600080fd5b505afa158015610342573d6000803e3d6000fd5b505050506040513d601f19601f820116820180604052508101906103669190611512565b6001600160a01b0384811660009081526066602052604090819020549051630c00007b60e41b8152336004820152929350169063c00007b090602401600060405180830381600087803b1580156103bc57600080fd5b505af11580156103d0573d6000803e3d6000fd5b50506040516370a0823160e01b8152306004820152600092508391506001600160a01b038516906370a082319060240160206040518083038186803b15801561041857600080fd5b505afa15801561042c573d6000803e3d6000fd5b505050506040513d601f19601f820116820180604052508101906104509190611512565b61045a9190611541565b6001600160a01b0384166000908152606860209081526040808320338452909152812080549293508392909190610492908490611558565b909155505060405181815233906001600160a01b038516907f0aa4d283470c904c551d18bb894d37e17674920f3261a7f854be501e25f421b7906020015b60405180910390a350505050565b6033546001600160a01b031633146105115760405162461bcd60e51b815260040161050890611570565b60405180910390fd5b6105256001600160a01b0384168383610bc7565b505050565b6033546001600160a01b031633146105545760405162461bcd60e51b815260040161050890611570565b606980546001600160a01b0319166001600160a01b0392909216919091179055565b6033546001600160a01b031633146105a05760405162461bcd60e51b815260040161050890611570565b6105aa6000610c2a565b565b6105c083336105bb8486611558565b610c7c565b811561060a576105d1833384610c9c565b6001600160a01b038316600090815260686020908152604080832033845290915281208054849290610604908490611558565b90915550505b6106148282611558565b606a549091506001600160a01b038481169116141561068b57606954604051632dc24a9d60e01b81523360048201526001600160a01b0390911690632dc24a9d90602401600060405180830381600087803b15801561067257600080fd5b505af1158015610686573d6000803e3d6000fd5b505050505b8015610525576001600160a01b0383166000908152606860209081526040808320338452909152812080548392906106c4908490611541565b909155505060405181815233906001600160a01b038516907fd1c19fbcd4551a5edfb66d43d2e337c04837afda3482b42bdf569a8fccdae5fb906020015b60405180910390a3505050565b610723833361071e8486611558565b610d9c565b50811561073557610735833384610edc565b8015610525576001600160a01b03831660009081526068602090815260408083203384529091528120805483929061076e908490611558565b909155505060405181815233906001600160a01b038516907f8752a472e571a816aea92eec8dae9baf628e840f4929fbcc2d155e6233ff68a790602001610702565b6033546001600160a01b031633146107da5760405162461bcd60e51b815260040161050890611570565b6001600160a01b0382166108285760405162461bcd60e51b815260206004820152601560248201527424b73b30b634b2103a37b5b2b71036b0b730b3b2b960591b6044820152606401610508565b6001600160a01b03919091166000908152606760205260409020805460ff1916911515919091179055565b600054610100900460ff168061086c575060005460ff16155b6108885760405162461bcd60e51b8152600401610508906115a5565b600054610100900460ff161580156108aa576000805461ffff19166101011790555b6108b2610fdc565b606a80546001600160a01b0319166001600160a01b03841617905580156108df576000805461ff00191690555b5050565b3360009081526067602052604090205460ff166109325760405162461bcd60e51b815260206004820152600d60248201526c2737903832b936b4b9b9b4b7b760991b6044820152606401610508565b600081116109525760405162461bcd60e51b8152600401610508906115f3565b6001600160a01b038316610993576001600160a01b03841660009081526065602052604081208054839290610988908490611541565b909155506109d09050565b6001600160a01b038085166000908152606860209081526040808320938716835292905290812080548392906109ca908490611541565b90915550505b6001600160a01b038216610a11576001600160a01b03841660009081526065602052604081208054839290610a06908490611558565b90915550610a4e9050565b6001600160a01b03808516600090815260686020908152604080832093861683529290529081208054839290610a48908490611558565b90915550505b816001600160a01b0316836001600160a01b0316856001600160a01b03167f36cfdcd32b03ec819be6eeff969415d001b7585fd722b6f6ac781a19cf93676a84604051610a9d91815260200190565b60405180910390a450505050565b6033546001600160a01b03163314610ad55760405162461bcd60e51b815260040161050890611570565b6001600160a01b0382811660008181526066602052604080822080546001600160a01b0319169486169485179055517fd109c28f40687f01c6719447aaa8102f442aa3b49a6d51e988f84501fe8ac0449190a35050565b6033546001600160a01b03163314610b565760405162461bcd60e51b815260040161050890611570565b6001600160a01b038116610bbb5760405162461bcd60e51b815260206004820152602660248201527f4f776e61626c653a206e6577206f776e657220697320746865207a65726f206160448201526564647265737360d01b6064820152608401610508565b610bc481610c2a565b50565b6040516001600160a01b03831660248201526044810182905261052590849063a9059cbb60e01b906064015b60408051601f198184030181529190526020810180516001600160e01b03166001600160e01b031990931692909217909152611057565b603380546001600160a01b038381166001600160a01b0319831681179093556040519116919082907f8be0079c531659141344cd1fd0a4f28419497f9722a3daafe3b4186f6b6457e090600090a35050565b600081116105115760405162461bcd60e51b8152600401610508906115f3565b6001600160a01b038084166000908152606660205260409020541680610cf55760405162461bcd60e51b815260206004820152600e60248201526d139bc81c995dd85c99081c1bdbdb60921b6044820152606401610508565b60405163f3fef3a360e01b81526001600160a01b0384811660048301526024820184905282169063f3fef3a390604401600060405180830381600087803b158015610d3f57600080fd5b505af1158015610d53573d6000803e3d6000fd5b50505050826001600160a01b0316846001600160a01b03167fd8654fcc8cf5b36d30b3f5e4688fc78118e6d68de60b9994e09902268b57c3e3846040516104d091815260200190565b6000808211610dbd5760405162461bcd60e51b8152600401610508906115f3565b6040516370a0823160e01b81523060048201526000906001600160a01b038616906370a082319060240160206040518083038186803b158015610dff57600080fd5b505afa158015610e13573d6000803e3d6000fd5b505050506040513d601f19601f82011682018060405250810190610e379190611512565b9050610e4e6001600160a01b038616853086611129565b6040516370a0823160e01b815230600482015281906001600160a01b038716906370a082319060240160206040518083038186803b158015610e8f57600080fd5b505afa158015610ea3573d6000803e3d6000fd5b505050506040513d601f19601f82011682018060405250810190610ec79190611512565b610ed19190611541565b9150505b9392505050565b6001600160a01b038084166000908152606660205260409020541680610f355760405162461bcd60e51b815260206004820152600e60248201526d139bc81c995dd85c99081c1bdbdb60921b6044820152606401610508565b6040516356e4bb9760e11b81526001600160a01b0384811660048301526024820184905282169063adc9772e90604401600060405180830381600087803b158015610f7f57600080fd5b505af1158015610f93573d6000803e3d6000fd5b50505050826001600160a01b0316846001600160a01b03167f5dac0c1b1112564a045ba943c9d50270893e8e826c49be8e7073adc713ab7bd7846040516104d091815260200190565b600054610100900460ff1680610ff5575060005460ff16155b6110115760405162461bcd60e51b8152600401610508906115a5565b600054610100900460ff16158015611033576000805461ffff19166101011790555b61103b611167565b6110436111d1565b8015610bc4576000805461ff001916905550565b60006110ac826040518060400160405280602081526020017f5361666545524332303a206c6f772d6c6576656c2063616c6c206661696c6564815250856001600160a01b03166112319092919063ffffffff16565b80519091501561052557808060200190518101906110ca919061161b565b6105255760405162461bcd60e51b815260206004820152602a60248201527f5361666545524332303a204552433230206f7065726174696f6e20646964206e6044820152691bdd081cdd58d8d9595960b21b6064820152608401610508565b6040516001600160a01b03808516602483015283166044820152606481018290526111619085906323b872dd60e01b90608401610bf3565b50505050565b600054610100900460ff1680611180575060005460ff16155b61119c5760405162461bcd60e51b8152600401610508906115a5565b600054610100900460ff16158015611043576000805461ffff19166101011790558015610bc4576000805461ff001916905550565b600054610100900460ff16806111ea575060005460ff16155b6112065760405162461bcd60e51b8152600401610508906115a5565b600054610100900460ff16158015611228576000805461ffff19166101011790555b61104333610c2a565b60606112408484600085611248565b949350505050565b6060824710156112a95760405162461bcd60e51b815260206004820152602660248201527f416464726573733a20696e73756666696369656e742062616c616e636520666f6044820152651c8818d85b1b60d21b6064820152608401610508565b843b6112f75760405162461bcd60e51b815260206004820152601d60248201527f416464726573733a2063616c6c20746f206e6f6e2d636f6e74726163740000006044820152606401610508565b600080866001600160a01b031685876040516113139190611664565b60006040518083038185875af1925050503d8060008114611350576040519150601f19603f3d011682016040523d82523d6000602084013e611355565b606091505b5091509150611365828286611370565b979650505050505050565b6060831561137f575081610ed5565b82511561138f5782518084602001fd5b8160405162461bcd60e51b81526004016105089190611680565b80356001600160a01b03811681146113c057600080fd5b919050565b6000602082840312156113d757600080fd5b610ed5826113a9565b600080604083850312156113f357600080fd5b6113fc836113a9565b915061140a602084016113a9565b90509250929050565b60008060006060848603121561142857600080fd5b611431846113a9565b925061143f602085016113a9565b9150604084013590509250925092565b60008060006060848603121561146457600080fd5b61146d846113a9565b95602085013595506040909401359392505050565b8015158114610bc457600080fd5b600080604083850312156114a357600080fd5b6114ac836113a9565b915060208301356114bc81611482565b809150509250929050565b600080600080608085870312156114dd57600080fd5b6114e6856113a9565b93506114f4602086016113a9565b9250611502604086016113a9565b9396929550929360600135925050565b60006020828403121561152457600080fd5b5051919050565b634e487b7160e01b600052601160045260246000fd5b6000828210156115535761155361152b565b500390565b6000821982111561156b5761156b61152b565b500190565b6020808252818101527f4f776e61626c653a2063616c6c6572206973206e6f7420746865206f776e6572604082015260600190565b6020808252602e908201527f496e697469616c697a61626c653a20636f6e747261637420697320616c72656160408201526d191e481a5b9a5d1a585b1a5e995960921b606082015260800190565b6020808252600e908201526d125b9d985b1a5908185b5bdd5b9d60921b604082015260600190565b60006020828403121561162d57600080fd5b8151610ed581611482565b60005b8381101561165357818101518382015260200161163b565b838111156111615750506000910152565b60008251611676818460208701611638565b9190910192915050565b602081526000825180602084015261169f816040850160208701611638565b601f01601f1916919091016040019291505056fea2646970667358221220f713ef801e5717e6172a07f5c912500f4984a04b98409b60826457e674f2fbb264736f6c63430008090033",
  "devdoc": {
    "kind": "dev",
    "methods": {
      "owner()": {
        "details": "Returns the address of the current owner."
      },
      "renounceOwnership()": {
        "details": "Leaves the contract without owner. It will not be possible to call `onlyOwner` functions anymore. Can only be called by the current owner. NOTE: Renouncing ownership will leave the contract without an owner, thereby removing any functionality that is only available to the owner."
      },
      "transferOwnership(address)": {
        "details": "Transfers ownership of the contract to a new account (`newOwner`). Can only be called by the current owner."
      }
    },
    "version": 1
  },
  "userdoc": {
    "kind": "user",
    "methods": {},
    "version": 1
  },
  "storageLayout": {
    "storage": [
      {
        "astId": 130,
        "contract": "contracts/Bank.sol:Bank",
        "label": "_initialized",
        "offset": 0,
        "slot": "0",
        "type": "t_bool"
      },
      {
        "astId": 133,
        "contract": "contracts/Bank.sol:Bank",
        "label": "_initializing",
        "offset": 1,
        "slot": "0",
        "type": "t_bool"
      },
      {
        "astId": 2046,
        "contract": "contracts/Bank.sol:Bank",
        "label": "__gap",
        "offset": 0,
        "slot": "1",
        "type": "t_array(t_uint256)50_storage"
      },
      {
        "astId": 10,
        "contract": "contracts/Bank.sol:Bank",
        "label": "_owner",
        "offset": 0,
        "slot": "51",
        "type": "t_address"
      },
      {
        "astId": 123,
        "contract": "contracts/Bank.sol:Bank",
        "label": "__gap",
        "offset": 0,
        "slot": "52",
        "type": "t_array(t_uint256)49_storage"
      },
      {
        "astId": 4212,
        "contract": "contracts/Bank.sol:Bank",
        "label": "treasuryFunds",
        "offset": 0,
        "slot": "101",
        "type": "t_mapping(t_address,t_uint256)"
      },
      {
        "astId": 4216,
        "contract": "contracts/Bank.sol:Bank",
        "label": "stakingRewards",
        "offset": 0,
        "slot": "102",
        "type": "t_mapping(t_address,t_address)"
      },
      {
        "astId": 4220,
        "contract": "contracts/Bank.sol:Bank",
        "label": "openTokenManagers",
        "offset": 0,
        "slot": "103",
        "type": "t_mapping(t_address,t_bool)"
      },
      {
        "astId": 4227,
        "contract": "contracts/Bank.sol:Bank",
        "label": "openTokenBalance",
        "offset": 0,
        "slot": "104",
        "type": "t_mapping(t_address,t_mapping(t_address,t_uint256))"
      },
      {
        "astId": 4229,
        "contract": "contracts/Bank.sol:Bank",
        "label": "cryptoClysm",
        "offset": 0,
        "slot": "105",
        "type": "t_address"
      },
      {
        "astId": 4231,
        "contract": "contracts/Bank.sol:Bank",
        "label": "creditToken",
        "offset": 0,
        "slot": "106",
        "type": "t_address"
      }
    ],
    "types": {
      "t_address": {
        "encoding": "inplace",
        "label": "address",
        "numberOfBytes": "20"
      },
      "t_array(t_uint256)49_storage": {
        "base": "t_uint256",
        "encoding": "inplace",
        "label": "uint256[49]",
        "numberOfBytes": "1568"
      },
      "t_array(t_uint256)50_storage": {
        "base": "t_uint256",
        "encoding": "inplace",
        "label": "uint256[50]",
        "numberOfBytes": "1600"
      },
      "t_bool": {
        "encoding": "inplace",
        "label": "bool",
        "numberOfBytes": "1"
      },
      "t_mapping(t_address,t_address)": {
        "encoding": "mapping",
        "key": "t_address",
        "label": "mapping(address => address)",
        "numberOfBytes": "32",
        "value": "t_address"
      },
      "t_mapping(t_address,t_bool)": {
        "encoding": "mapping",
        "key": "t_address",
        "label": "mapping(address => bool)",
        "numberOfBytes": "32",
        "value": "t_bool"
      },
      "t_mapping(t_address,t_mapping(t_address,t_uint256))": {
        "encoding": "mapping",
        "key": "t_address",
        "label": "mapping(address => mapping(address => uint256))",
        "numberOfBytes": "32",
        "value": "t_mapping(t_address,t_uint256)"
      },
      "t_mapping(t_address,t_uint256)": {
        "encoding": "mapping",
        "key": "t_address",
        "label": "mapping(address => uint256)",
        "numberOfBytes": "32",
        "value": "t_uint256"
      },
      "t_uint256": {
        "encoding": "inplace",
        "label": "uint256",
        "numberOfBytes": "32"
      }
    }
  }
}