{
  "address": "0x0Ac1d08a5F8C535d002b236E0CA9f94822407B04",
  "abi": [
    {
      "inputs": [
        {
          "internalType": "address",
          "name": "_rewardsDistribution",
          "type": "address"
        },
        {
          "internalType": "address",
          "name": "_rewardsToken",
          "type": "address"
        },
        {
          "internalType": "address",
          "name": "_bank",
          "type": "address"
        }
      ],
      "stateMutability": "nonpayable",
      "type": "constructor"
    },
    {
      "anonymous": false,
      "inputs": [
        {
          "indexed": true,
          "internalType": "address",
          "name": "previousOwner",
          "type": "address"
        },
        {
          "indexed": true,
          "internalType": "address",
          "name": "newOwner",
          "type": "address"
        }
      ],
      "name": "OwnershipTransferred",
      "type": "event"
    },
    {
      "anonymous": false,
      "inputs": [
        {
          "indexed": false,
          "internalType": "address",
          "name": "token",
          "type": "address"
        },
        {
          "indexed": false,
          "internalType": "uint256",
          "name": "amount",
          "type": "uint256"
        }
      ],
      "name": "Recovered",
      "type": "event"
    },
    {
      "anonymous": false,
      "inputs": [
        {
          "indexed": false,
          "internalType": "uint256",
          "name": "reward",
          "type": "uint256"
        }
      ],
      "name": "RewardAdded",
      "type": "event"
    },
    {
      "anonymous": false,
      "inputs": [
        {
          "indexed": true,
          "internalType": "address",
          "name": "user",
          "type": "address"
        },
        {
          "indexed": false,
          "internalType": "uint256",
          "name": "reward",
          "type": "uint256"
        }
      ],
      "name": "RewardPaid",
      "type": "event"
    },
    {
      "anonymous": false,
      "inputs": [
        {
          "indexed": false,
          "internalType": "uint256",
          "name": "newDuration",
          "type": "uint256"
        }
      ],
      "name": "RewardsDurationUpdated",
      "type": "event"
    },
    {
      "anonymous": false,
      "inputs": [
        {
          "indexed": true,
          "internalType": "address",
          "name": "user",
          "type": "address"
        },
        {
          "indexed": false,
          "internalType": "uint256",
          "name": "amount",
          "type": "uint256"
        }
      ],
      "name": "Staked",
      "type": "event"
    },
    {
      "anonymous": false,
      "inputs": [
        {
          "indexed": true,
          "internalType": "address",
          "name": "user",
          "type": "address"
        },
        {
          "indexed": false,
          "internalType": "uint256",
          "name": "amount",
          "type": "uint256"
        }
      ],
      "name": "Withdrawn",
      "type": "event"
    },
    {
      "inputs": [
        {
          "internalType": "address",
          "name": "account",
          "type": "address"
        }
      ],
      "name": "balanceOf",
      "outputs": [
        {
          "internalType": "uint256",
          "name": "",
          "type": "uint256"
        }
      ],
      "stateMutability": "view",
      "type": "function"
    },
    {
      "inputs": [],
      "name": "bank",
      "outputs": [
        {
          "internalType": "address",
          "name": "",
          "type": "address"
        }
      ],
      "stateMutability": "view",
      "type": "function"
    },
    {
      "inputs": [
        {
          "internalType": "address",
          "name": "account",
          "type": "address"
        }
      ],
      "name": "earned",
      "outputs": [
        {
          "internalType": "uint256",
          "name": "",
          "type": "uint256"
        }
      ],
      "stateMutability": "view",
      "type": "function"
    },
    {
      "inputs": [
        {
          "internalType": "address",
          "name": "user",
          "type": "address"
        }
      ],
      "name": "getReward",
      "outputs": [],
      "stateMutability": "nonpayable",
      "type": "function"
    },
    {
      "inputs": [],
      "name": "getRewardForDuration",
      "outputs": [
        {
          "internalType": "uint256",
          "name": "",
          "type": "uint256"
        }
      ],
      "stateMutability": "view",
      "type": "function"
    },
    {
      "inputs": [],
      "name": "lastTimeRewardApplicable",
      "outputs": [
        {
          "internalType": "uint256",
          "name": "",
          "type": "uint256"
        }
      ],
      "stateMutability": "view",
      "type": "function"
    },
    {
      "inputs": [],
      "name": "lastUpdateTime",
      "outputs": [
        {
          "internalType": "uint256",
          "name": "",
          "type": "uint256"
        }
      ],
      "stateMutability": "view",
      "type": "function"
    },
    {
      "inputs": [
        {
          "internalType": "uint256",
          "name": "reward",
          "type": "uint256"
        }
      ],
      "name": "notifyRewardAmount",
      "outputs": [],
      "stateMutability": "nonpayable",
      "type": "function"
    },
    {
      "inputs": [],
      "name": "owner",
      "outputs": [
        {
          "internalType": "address",
          "name": "",
          "type": "address"
        }
      ],
      "stateMutability": "view",
      "type": "function"
    },
    {
      "inputs": [],
      "name": "periodFinish",
      "outputs": [
        {
          "internalType": "uint256",
          "name": "",
          "type": "uint256"
        }
      ],
      "stateMutability": "view",
      "type": "function"
    },
    {
      "inputs": [],
      "name": "renounceOwnership",
      "outputs": [],
      "stateMutability": "nonpayable",
      "type": "function"
    },
    {
      "inputs": [],
      "name": "rewardPerToken",
      "outputs": [
        {
          "internalType": "uint256",
          "name": "",
          "type": "uint256"
        }
      ],
      "stateMutability": "view",
      "type": "function"
    },
    {
      "inputs": [],
      "name": "rewardPerTokenStored",
      "outputs": [
        {
          "internalType": "uint256",
          "name": "",
          "type": "uint256"
        }
      ],
      "stateMutability": "view",
      "type": "function"
    },
    {
      "inputs": [],
      "name": "rewardRate",
      "outputs": [
        {
          "internalType": "uint256",
          "name": "",
          "type": "uint256"
        }
      ],
      "stateMutability": "view",
      "type": "function"
    },
    {
      "inputs": [
        {
          "internalType": "address",
          "name": "",
          "type": "address"
        }
      ],
      "name": "rewards",
      "outputs": [
        {
          "internalType": "uint256",
          "name": "",
          "type": "uint256"
        }
      ],
      "stateMutability": "view",
      "type": "function"
    },
    {
      "inputs": [],
      "name": "rewardsDistribution",
      "outputs": [
        {
          "internalType": "address",
          "name": "",
          "type": "address"
        }
      ],
      "stateMutability": "view",
      "type": "function"
    },
    {
      "inputs": [],
      "name": "rewardsDuration",
      "outputs": [
        {
          "internalType": "uint256",
          "name": "",
          "type": "uint256"
        }
      ],
      "stateMutability": "view",
      "type": "function"
    },
    {
      "inputs": [],
      "name": "rewardsToken",
      "outputs": [
        {
          "internalType": "contract IERC20",
          "name": "",
          "type": "address"
        }
      ],
      "stateMutability": "view",
      "type": "function"
    },
    {
      "inputs": [
        {
          "internalType": "address",
          "name": "_bank",
          "type": "address"
        }
      ],
      "name": "setBank",
      "outputs": [],
      "stateMutability": "nonpayable",
      "type": "function"
    },
    {
      "inputs": [
        {
          "internalType": "address",
          "name": "_rewardsDistribution",
          "type": "address"
        }
      ],
      "name": "setRewardsDistribution",
      "outputs": [],
      "stateMutability": "nonpayable",
      "type": "function"
    },
    {
      "inputs": [
        {
          "internalType": "uint256",
          "name": "_rewardsDuration",
          "type": "uint256"
        }
      ],
      "name": "setRewardsDuration",
      "outputs": [],
      "stateMutability": "nonpayable",
      "type": "function"
    },
    {
      "inputs": [
        {
          "internalType": "address",
          "name": "user",
          "type": "address"
        },
        {
          "internalType": "uint256",
          "name": "amount",
          "type": "uint256"
        }
      ],
      "name": "stake",
      "outputs": [],
      "stateMutability": "nonpayable",
      "type": "function"
    },
    {
      "inputs": [],
      "name": "totalSupply",
      "outputs": [
        {
          "internalType": "uint256",
          "name": "",
          "type": "uint256"
        }
      ],
      "stateMutability": "view",
      "type": "function"
    },
    {
      "inputs": [
        {
          "internalType": "address",
          "name": "newOwner",
          "type": "address"
        }
      ],
      "name": "transferOwnership",
      "outputs": [],
      "stateMutability": "nonpayable",
      "type": "function"
    },
    {
      "inputs": [
        {
          "internalType": "address",
          "name": "",
          "type": "address"
        }
      ],
      "name": "userRewardPerTokenPaid",
      "outputs": [
        {
          "internalType": "uint256",
          "name": "",
          "type": "uint256"
        }
      ],
      "stateMutability": "view",
      "type": "function"
    },
    {
      "inputs": [
        {
          "internalType": "address",
          "name": "user",
          "type": "address"
        },
        {
          "internalType": "uint256",
          "name": "amount",
          "type": "uint256"
        }
      ],
      "name": "withdraw",
      "outputs": [],
      "stateMutability": "nonpayable",
      "type": "function"
    }
  ],
  "transactionHash": "0x0332fc94f8dead4d4f1ad0fdbca26608ccb23e54fc051fb43037c55721bb1548",
  "args": [
    "0xFC0Fb7c5ecDC08FAE522372c385577c09ca64C3c",
    "0xDfb01A88D1e6099B42c9Bae38F8070027143b850",
    "0x87768D29b3C13dABC3f8D3DBCB5D870C19696bcA"
  ],
  "solcInputHash": "b306d25c82356b8119f31ac83c89ac23",
  "bytecode": "0x60806040526000600255600060035562093a806004553480156200002257600080fd5b506040516200134c3803806200134c8339810160408190526200004591620000fe565b620000503362000091565b600180546001600160a01b03199081166001600160a01b03948516179091556008805482169484169490941790935560078054909316911617905562000148565b600080546001600160a01b038381166001600160a01b0319831681178455604051919092169283917f8be0079c531659141344cd1fd0a4f28419497f9722a3daafe3b4186f6b6457e09190a35050565b80516001600160a01b0381168114620000f957600080fd5b919050565b6000806000606084860312156200011457600080fd5b6200011f84620000e1565b92506200012f60208501620000e1565b91506200013f60408501620000e1565b90509250925092565b6111f480620001586000396000f3fe608060405234801561001057600080fd5b506004361061018d5760003560e01c806380faa57d116100de578063cc1a378f11610097578063df136d6511610071578063df136d651461033a578063ebe2b12b14610343578063f2fde38b1461034c578063f3fef3a31461035f57600080fd5b8063cc1a378f1461030c578063cd3daf9d1461031f578063d1af0c7d1461032757600080fd5b806380faa57d146102a45780638b876347146102ac5780638da5cb5b146102cc578063adc9772e146102dd578063c00007b0146102f0578063c8f33c911461030357600080fd5b8063386a95251161014b57806370a082311161012557806370a0823114610257578063715018a61461028057806376cdb03b146102885780637b0a47ee1461029b57600080fd5b8063386a9525146102105780633c6b16ab146102195780633fc6df6e1461022c57600080fd5b80628cc262146101925780630700037d146101b8578063090d23b9146101d857806318160ddd146101ed57806319762143146101f55780631c1f78eb14610208575b600080fd5b6101a56101a0366004610fc9565b610372565b6040519081526020015b60405180910390f35b6101a56101c6366004610fc9565b600a6020526000908152604090205481565b6101eb6101e6366004610fc9565b6103ef565b005b600b546101a5565b6101eb610203366004610fc9565b610444565b6101a5610490565b6101a560045481565b6101eb610227366004610fe4565b6104a7565b60085461023f906001600160a01b031681565b6040516001600160a01b0390911681526020016101af565b6101a5610265366004610fc9565b6001600160a01b03166000908152600c602052604090205490565b6101eb6106e7565b60075461023f906001600160a01b031681565b6101a560035481565b6101a561071d565b6101a56102ba366004610fc9565b60096020526000908152604090205481565b6000546001600160a01b031661023f565b6101eb6102eb366004610ffd565b610734565b6101eb6102fe366004610fc9565b610882565b6101a560055481565b6101eb61031a366004610fe4565b61098f565b6101a5610a91565b60015461023f906001600160a01b031681565b6101a560065481565b6101a560025481565b6101eb61035a366004610fc9565b610af3565b6101eb61036d366004610ffd565b610b8e565b6001600160a01b0381166000908152600a60209081526040808320546009909252822054670de0b6b3a7640000906103a8610a91565b6103b2919061103d565b6001600160a01b0385166000908152600c60205260409020546103d59190611054565b6103df9190611073565b6103e99190611095565b92915050565b6000546001600160a01b031633146104225760405162461bcd60e51b8152600401610419906110ad565b60405180910390fd5b600780546001600160a01b0319166001600160a01b0392909216919091179055565b6000546001600160a01b0316331461046e5760405162461bcd60e51b8152600401610419906110ad565b600880546001600160a01b0319166001600160a01b0392909216919091179055565b60006004546003546104a29190611054565b905090565b60006104b1610a91565b6006556104bc61071d565b6005556001600160a01b03811615610503576104d781610372565b6001600160a01b0382166000908152600a60209081526040808320939093556006546009909152919020555b6008546001600160a01b0316331461055d5760405162461bcd60e51b815260206004820152601760248201527f4e6f742072657761726420646973747269627574696f6e0000000000000000006044820152606401610419565b600254421061057b576004546105739083611073565b6003556105bd565b60004260025461058b919061103d565b905060006003548261059d9190611054565b6004549091506105ad8286611095565b6105b79190611073565b60035550505b6001546040516370a0823160e01b81523060048201526000916001600160a01b0316906370a082319060240160206040518083038186803b15801561060157600080fd5b505afa158015610615573d6000803e3d6000fd5b505050506040513d601f19601f8201168201806040525081019061063991906110e2565b9050600454816106499190611073565b600354111561069a5760405162461bcd60e51b815260206004820152601860248201527f50726f76696465642072657761726420746f6f206869676800000000000000006044820152606401610419565b4260058190556004546106ac91611095565b6002556040518381527fde88a922e0d3b88b24e9623efeb464919c6bf9f66857a65e2bfcf2ce87a9433d9060200160405180910390a1505050565b6000546001600160a01b031633146107115760405162461bcd60e51b8152600401610419906110ad565b61071b6000610cd6565b565b6000600254421061072f575060025490565b504290565b8161073d610a91565b60065561074861071d565b6005556001600160a01b0381161561078f5761076381610372565b6001600160a01b0382166000908152600a60209081526040808320939093556006546009909152919020555b6007546001600160a01b031633146107b95760405162461bcd60e51b8152600401610419906110fb565b600082116107fa5760405162461bcd60e51b815260206004820152600e60248201526d043616e6e6f74207374616b6520360941b6044820152606401610419565b81600b600082825461080c9190611095565b90915550506001600160a01b0383166000908152600c602052604081208054849290610839908490611095565b90915550506040518281526001600160a01b038416907f9e71bc8eea02a63969f509818f2dafb9254532904319f9dbda79b67bd34a5f3d906020015b60405180910390a2505050565b8061088b610a91565b60065561089661071d565b6005556001600160a01b038116156108dd576108b181610372565b6001600160a01b0382166000908152600a60209081526040808320939093556006546009909152919020555b6007546001600160a01b031633146109075760405162461bcd60e51b8152600401610419906110fb565b6001600160a01b0382166000908152600a6020526040902054801561098a576001600160a01b038084166000908152600a602052604081205560015461094f91163383610d26565b826001600160a01b03167fe2403640ba68fed3a2f88b7557551d1993f84b99bb10ff833f0cf8db0c5e04868260405161087591815260200190565b505050565b6000546001600160a01b031633146109b95760405162461bcd60e51b8152600401610419906110ad565b6002544211610a565760405162461bcd60e51b815260206004820152605860248201527f50726576696f7573207265776172647320706572696f64206d7573742062652060448201527f636f6d706c657465206265666f7265206368616e67696e67207468652064757260648201527f6174696f6e20666f7220746865206e657720706572696f640000000000000000608482015260a401610419565b60048190556040518181527ffb46ca5a5e06d4540d6387b930a7c978bce0db5f449ec6b3f5d07c6e1d44f2d39060200160405180910390a150565b6000600b5460001415610aa5575060065490565b600b54600354600554610ab661071d565b610ac0919061103d565b610aca9190611054565b610adc90670de0b6b3a7640000611054565b610ae69190611073565b6006546104a29190611095565b6000546001600160a01b03163314610b1d5760405162461bcd60e51b8152600401610419906110ad565b6001600160a01b038116610b825760405162461bcd60e51b815260206004820152602660248201527f4f776e61626c653a206e6577206f776e657220697320746865207a65726f206160448201526564647265737360d01b6064820152608401610419565b610b8b81610cd6565b50565b81610b97610a91565b600655610ba261071d565b6005556001600160a01b03811615610be957610bbd81610372565b6001600160a01b0382166000908152600a60209081526040808320939093556006546009909152919020555b6007546001600160a01b03163314610c135760405162461bcd60e51b8152600401610419906110fb565b60008211610c575760405162461bcd60e51b8152602060048201526011602482015270043616e6e6f74207769746864726177203607c1b6044820152606401610419565b81600b6000828254610c69919061103d565b90915550506001600160a01b0383166000908152600c602052604081208054849290610c9690849061103d565b90915550506040518281526001600160a01b038416907f7084f5476618d8e60b11ef0d7d3f06914655adb8793e28ff7f018d4c76d505d590602001610875565b600080546001600160a01b038381166001600160a01b0319831681178455604051919092169283917f8be0079c531659141344cd1fd0a4f28419497f9722a3daafe3b4186f6b6457e09190a35050565b604080516001600160a01b03848116602483015260448083018590528351808403909101815260649092018352602080830180516001600160e01b031663a9059cbb60e01b17905283518085019094528084527f5361666545524332303a206c6f772d6c6576656c2063616c6c206661696c65649084015261098a92869291600091610db6918516908490610e33565b80519091501561098a5780806020019051810190610dd4919061111d565b61098a5760405162461bcd60e51b815260206004820152602a60248201527f5361666545524332303a204552433230206f7065726174696f6e20646964206e6044820152691bdd081cdd58d8d9595960b21b6064820152608401610419565b6060610e428484600085610e4c565b90505b9392505050565b606082471015610ead5760405162461bcd60e51b815260206004820152602660248201527f416464726573733a20696e73756666696369656e742062616c616e636520666f6044820152651c8818d85b1b60d21b6064820152608401610419565b843b610efb5760405162461bcd60e51b815260206004820152601d60248201527f416464726573733a2063616c6c20746f206e6f6e2d636f6e74726163740000006044820152606401610419565b600080866001600160a01b03168587604051610f17919061116f565b60006040518083038185875af1925050503d8060008114610f54576040519150601f19603f3d011682016040523d82523d6000602084013e610f59565b606091505b5091509150610f69828286610f74565b979650505050505050565b60608315610f83575081610e45565b825115610f935782518084602001fd5b8160405162461bcd60e51b8152600401610419919061118b565b80356001600160a01b0381168114610fc457600080fd5b919050565b600060208284031215610fdb57600080fd5b610e4582610fad565b600060208284031215610ff657600080fd5b5035919050565b6000806040838503121561101057600080fd5b61101983610fad565b946020939093013593505050565b634e487b7160e01b600052601160045260246000fd5b60008282101561104f5761104f611027565b500390565b600081600019048311821515161561106e5761106e611027565b500290565b60008261109057634e487b7160e01b600052601260045260246000fd5b500490565b600082198211156110a8576110a8611027565b500190565b6020808252818101527f4f776e61626c653a2063616c6c6572206973206e6f7420746865206f776e6572604082015260600190565b6000602082840312156110f457600080fd5b5051919050565b6020808252600890820152674e6f742062616e6b60c01b604082015260600190565b60006020828403121561112f57600080fd5b81518015158114610e4557600080fd5b60005b8381101561115a578181015183820152602001611142565b83811115611169576000848401525b50505050565b6000825161118181846020870161113f565b9190910192915050565b60208152600082518060208401526111aa81604085016020870161113f565b601f01601f1916919091016040019291505056fea2646970667358221220302ab991b8a2d054afaf212216a2e513bf9aa3aecfb3f2debeb5da8fbf025de264736f6c63430008090033",
  "devdoc": {
    "kind": "dev",
    "methods": {
      "owner()": {
        "details": "Returns the address of the current owner."
      },
      "renounceOwnership()": {
        "details": "Leaves the contract without owner. It will not be possible to call `onlyOwner` functions anymore. Can only be called by the current owner. NOTE: Renouncing ownership will leave the contract without an owner, thereby removing any functionality that is only available to the owner."
      },
      "transferOwnership(address)": {
        "details": "Transfers ownership of the contract to a new account (`newOwner`). Can only be called by the current owner."
      }
    },
    "version": 1
  },
  "userdoc": {
    "kind": "user",
    "methods": {},
    "version": 1
  },
  "storageLayout": {
    "storage": [
      {
        "astId": 2113,
        "contract": "contracts/StakingRewards.sol:StakingRewards",
        "label": "_owner",
        "offset": 0,
        "slot": "0",
        "type": "t_address"
      },
      {
        "astId": 5850,
        "contract": "contracts/StakingRewards.sol:StakingRewards",
        "label": "rewardsToken",
        "offset": 0,
        "slot": "1",
        "type": "t_contract(IERC20)2915"
      },
      {
        "astId": 5853,
        "contract": "contracts/StakingRewards.sol:StakingRewards",
        "label": "periodFinish",
        "offset": 0,
        "slot": "2",
        "type": "t_uint256"
      },
      {
        "astId": 5856,
        "contract": "contracts/StakingRewards.sol:StakingRewards",
        "label": "rewardRate",
        "offset": 0,
        "slot": "3",
        "type": "t_uint256"
      },
      {
        "astId": 5859,
        "contract": "contracts/StakingRewards.sol:StakingRewards",
        "label": "rewardsDuration",
        "offset": 0,
        "slot": "4",
        "type": "t_uint256"
      },
      {
        "astId": 5861,
        "contract": "contracts/StakingRewards.sol:StakingRewards",
        "label": "lastUpdateTime",
        "offset": 0,
        "slot": "5",
        "type": "t_uint256"
      },
      {
        "astId": 5863,
        "contract": "contracts/StakingRewards.sol:StakingRewards",
        "label": "rewardPerTokenStored",
        "offset": 0,
        "slot": "6",
        "type": "t_uint256"
      },
      {
        "astId": 5865,
        "contract": "contracts/StakingRewards.sol:StakingRewards",
        "label": "bank",
        "offset": 0,
        "slot": "7",
        "type": "t_address"
      },
      {
        "astId": 5867,
        "contract": "contracts/StakingRewards.sol:StakingRewards",
        "label": "rewardsDistribution",
        "offset": 0,
        "slot": "8",
        "type": "t_address"
      },
      {
        "astId": 5871,
        "contract": "contracts/StakingRewards.sol:StakingRewards",
        "label": "userRewardPerTokenPaid",
        "offset": 0,
        "slot": "9",
        "type": "t_mapping(t_address,t_uint256)"
      },
      {
        "astId": 5875,
        "contract": "contracts/StakingRewards.sol:StakingRewards",
        "label": "rewards",
        "offset": 0,
        "slot": "10",
        "type": "t_mapping(t_address,t_uint256)"
      },
      {
        "astId": 5877,
        "contract": "contracts/StakingRewards.sol:StakingRewards",
        "label": "_totalSupply",
        "offset": 0,
        "slot": "11",
        "type": "t_uint256"
      },
      {
        "astId": 5881,
        "contract": "contracts/StakingRewards.sol:StakingRewards",
        "label": "_balances",
        "offset": 0,
        "slot": "12",
        "type": "t_mapping(t_address,t_uint256)"
      }
    ],
    "types": {
      "t_address": {
        "encoding": "inplace",
        "label": "address",
        "numberOfBytes": "20"
      },
      "t_contract(IERC20)2915": {
        "encoding": "inplace",
        "label": "contract IERC20",
        "numberOfBytes": "20"
      },
      "t_mapping(t_address,t_uint256)": {
        "encoding": "mapping",
        "key": "t_address",
        "label": "mapping(address => uint256)",
        "numberOfBytes": "32",
        "value": "t_uint256"
      },
      "t_uint256": {
        "encoding": "inplace",
        "label": "uint256",
        "numberOfBytes": "32"
      }
    }
  }
}